{
  "_format": "hh-sol-artifact-1",
  "contractName": "CustomSwap",
  "sourceName": "contracts/CustomSwap.sol",
  "abi": [
    {
      "inputs": [],
      "stateMutability": "nonpayable",
      "type": "constructor"
    },
    {
      "inputs": [
        {
          "internalType": "string",
          "name": "tokenName",
          "type": "string"
        },
        {
          "internalType": "address",
          "name": "_address",
          "type": "address"
        }
      ],
      "name": "getBalance",
      "outputs": [
        {
          "internalType": "uint256",
          "name": "",
          "type": "uint256"
        }
      ],
      "stateMutability": "view",
      "type": "function"
    },
    {
      "inputs": [],
      "name": "getEthBalance",
      "outputs": [
        {
          "internalType": "uint256",
          "name": "",
          "type": "uint256"
        }
      ],
      "stateMutability": "view",
      "type": "function"
    },
    {
      "inputs": [
        {
          "internalType": "string",
          "name": "tokenName",
          "type": "string"
        }
      ],
      "name": "getName",
      "outputs": [
        {
          "internalType": "string",
          "name": "",
          "type": "string"
        }
      ],
      "stateMutability": "view",
      "type": "function"
    },
    {
      "inputs": [
        {
          "internalType": "string",
          "name": "tokenName",
          "type": "string"
        }
      ],
      "name": "getTokenAddress",
      "outputs": [
        {
          "internalType": "address",
          "name": "",
          "type": "address"
        }
      ],
      "stateMutability": "view",
      "type": "function"
    },
    {
      "inputs": [
        {
          "internalType": "string",
          "name": "tokenName",
          "type": "string"
        }
      ],
      "name": "getTotalSupply",
      "outputs": [
        {
          "internalType": "uint256",
          "name": "",
          "type": "uint256"
        }
      ],
      "stateMutability": "view",
      "type": "function"
    },
    {
      "inputs": [
        {
          "internalType": "string",
          "name": "tokenName",
          "type": "string"
        }
      ],
      "name": "swapEthToToken",
      "outputs": [
        {
          "internalType": "uint256",
          "name": "",
          "type": "uint256"
        }
      ],
      "stateMutability": "payable",
      "type": "function"
    },
    {
      "inputs": [
        {
          "internalType": "string",
          "name": "tokenName",
          "type": "string"
        },
        {
          "internalType": "uint256",
          "name": "_amount",
          "type": "uint256"
        }
      ],
      "name": "swapTokenToEth",
      "outputs": [
        {
          "internalType": "uint256",
          "name": "",
          "type": "uint256"
        }
      ],
      "stateMutability": "nonpayable",
      "type": "function"
    },
    {
      "inputs": [
        {
          "internalType": "string",
          "name": "srcTokenName",
          "type": "string"
        },
        {
          "internalType": "string",
          "name": "destTokenName",
          "type": "string"
        },
        {
          "internalType": "uint256",
          "name": "_amount",
          "type": "uint256"
        }
      ],
      "name": "swapTokenToToken",
      "outputs": [],
      "stateMutability": "nonpayable",
      "type": "function"
    },
    {
      "inputs": [
        {
          "internalType": "string",
          "name": "",
          "type": "string"
        }
      ],
      "name": "tokenInstanceMap",
      "outputs": [
        {
          "internalType": "contract ERC20",
          "name": "",
          "type": "address"
        }
      ],
      "stateMutability": "view",
      "type": "function"
    },
    {
      "inputs": [
        {
          "internalType": "uint256",
          "name": "",
          "type": "uint256"
        }
      ],
      "name": "tokens",
      "outputs": [
        {
          "internalType": "string",
          "name": "",
          "type": "string"
        }
      ],
      "stateMutability": "view",
      "type": "function"
    }
  ],
  "bytecode": "0x608060405260405180606001604052806040518060400160405280600581526020017f436f696e4100000000000000000000000000000000000000000000000000000081525081526020016040518060400160405280600581526020017f436f696e4200000000000000000000000000000000000000000000000000000081525081526020016040518060400160405280600581526020017f436f696e430000000000000000000000000000000000000000000000000000008152508152506000906003620000d09291906200020d565b50655af3107a4000600255348015620000e857600080fd5b5060005b6000805490508110156200020657600080828154811062000112576200011162000308565b5b906000526020600020016000838154811062000133576200013262000308565b5b906000526020600020016040516200014b906200026d565b6200015892919062000451565b604051809103906000f08015801562000175573d6000803e3d6000fd5b5090508060016000848154811062000192576200019162000308565b5b90600052602060002001604051620001ab919062000526565b908152602001604051809103902060006101000a81548173ffffffffffffffffffffffffffffffffffffffff021916908373ffffffffffffffffffffffffffffffffffffffff160217905550508080600101915050620000ec565b5062000827565b8280548282559060005260206000209081019282156200025a579160200282015b828111156200025957825182908162000248919062000740565b50916020019190600101906200022e565b5b5090506200026991906200027b565b5090565b6118258062001b8283390190565b5b808211156200029f5760008181620002959190620002a3565b506001016200027c565b5090565b508054620002b19062000366565b6000825580601f10620002c55750620002e6565b601f016020900490600052602060002090810190620002e59190620002e9565b5b50565b5b8082111562000304576000816000905550600101620002ea565b5090565b7f4e487b7100000000000000000000000000000000000000000000000000000000600052603260045260246000fd5b7f4e487b7100000000000000000000000000000000000000000000000000000000600052602260045260246000fd5b600060028204905060018216806200037f57607f821691505b60208210810362000395576200039462000337565b5b50919050565b600082825260208201905092915050565b60008190508160005260206000209050919050565b60008154620003d08162000366565b620003dc81866200039b565b94506001821660008114620003fa5760018114620004115762000448565b60ff19831686528115156020028601935062000448565b6200041c85620003ac565b60005b8381101562000440578154818901526001820191506020810190506200041f565b808801955050505b50505092915050565b600060408201905081810360008301526200046d8185620003c1565b90508181036020830152620004838184620003c1565b90509392505050565b600081905092915050565b60008154620004a68162000366565b620004b281866200048c565b94506001821660008114620004d05760018114620004e6576200051d565b60ff19831686528115158202860193506200051d565b620004f185620003ac565b60005b838110156200051557815481890152600182019150602081019050620004f4565b838801955050505b50505092915050565b600062000534828462000497565b915081905092915050565b600081519050919050565b7f4e487b7100000000000000000000000000000000000000000000000000000000600052604160045260246000fd5b60006020601f8301049050919050565b600082821b905092915050565b600060088302620005c87fffffffffffffffffffffffffffffffffffffffffffffffffffffffffffffffff8262000589565b620005d4868362000589565b95508019841693508086168417925050509392505050565b6000819050919050565b6000819050919050565b6000620006216200061b6200061584620005ec565b620005f6565b620005ec565b9050919050565b6000819050919050565b6200063d8362000600565b620006556200064c8262000628565b84845462000596565b825550505050565b600090565b6200066c6200065d565b6200067981848462000632565b505050565b5b81811015620006a1576200069560008262000662565b6001810190506200067f565b5050565b601f821115620006f057620006ba81620003ac565b620006c58462000579565b81016020851015620006d5578190505b620006ed620006e48562000579565b8301826200067e565b50505b505050565b600082821c905092915050565b60006200071560001984600802620006f5565b1980831691505092915050565b600062000730838362000702565b9150826002028217905092915050565b6200074b826200053f565b67ffffffffffffffff8111156200076757620007666200054a565b5b62000773825462000366565b62000780828285620006a5565b600060209050601f831160018114620007b85760008415620007a3578287015190505b620007af858262000722565b8655506200081f565b601f198416620007c886620003ac565b60005b82811015620007f257848901518255600182019150602085019450602081019050620007cb565b868310156200081257848901516200080e601f89168262000702565b8355505b6001600288020188555050505b505050505050565b61134b80620008376000396000f3fe6080604052600436106100915760003560e01c806389f4b3171161005957806389f4b317146101a8578063a93325ed146101e5578063bf015aae14610222578063c40912361461024b578063db6f63ee1461028857610091565b80634f64b2be146100965780635463109e146100d357806363fcf7c5146101105780636932cf811461014057806370ed0ada1461017d575b600080fd5b3480156100a257600080fd5b506100bd60048036038101906100b89190610a99565b6102c5565b6040516100ca9190610b56565b60405180910390f35b3480156100df57600080fd5b506100fa60048036038101906100f59190610cad565b610371565b6040516101079190610d05565b60405180910390f35b61012a60048036038101906101259190610cad565b610427565b6040516101379190610d05565b60405180910390f35b34801561014c57600080fd5b5061016760048036038101906101629190610cad565b610521565b6040516101749190610b56565b60405180910390f35b34801561018957600080fd5b506101926105dc565b60405161019f9190610d05565b60405180910390f35b3480156101b457600080fd5b506101cf60048036038101906101ca9190610d7e565b6105e4565b6040516101dc9190610d05565b60405180910390f35b3480156101f157600080fd5b5061020c60048036038101906102079190610cad565b6106a6565b6040516102199190610e39565b60405180910390f35b34801561022e57600080fd5b5061024960048036038101906102449190610e54565b6106ef565b005b34801561025757600080fd5b50610272600480360381019061026d9190610cad565b610880565b60405161027f9190610eee565b60405180910390f35b34801561029457600080fd5b506102af60048036038101906102aa9190610f09565b6108c8565b6040516102bc9190610d05565b60405180910390f35b600081815481106102d557600080fd5b9060005260206000200160009150905080546102f090610f94565b80601f016020809104026020016040519081016040528092919081815260200182805461031c90610f94565b80156103695780601f1061033e57610100808354040283529160200191610369565b820191906000526020600020905b81548152906001019060200180831161034c57829003601f168201915b505050505081565b60006001826040516103839190611001565b908152602001604051809103902060009054906101000a900473ffffffffffffffffffffffffffffffffffffffff1673ffffffffffffffffffffffffffffffffffffffff166318160ddd6040518163ffffffff1660e01b8152600401602060405180830381865afa1580156103fc573d6000803e3d6000fd5b505050506040513d601f19601f82011682018060405250810190610420919061102d565b9050919050565b6000803490506000670de0b6b3a76400006002548361044691906110b8565b61045091906110e9565b90506001846040516104629190611001565b908152602001604051809103902060009054906101000a900473ffffffffffffffffffffffffffffffffffffffff1673ffffffffffffffffffffffffffffffffffffffff1663a9059cbb33836040518363ffffffff1660e01b81526004016104cb92919061112b565b6020604051808303816000875af11580156104ea573d6000803e3d6000fd5b505050506040513d601f19601f8201168201806040525081019061050e919061118c565b61051757600080fd5b8092505050919050565b60606001826040516105339190611001565b908152602001604051809103902060009054906101000a900473ffffffffffffffffffffffffffffffffffffffff1673ffffffffffffffffffffffffffffffffffffffff166306fdde036040518163ffffffff1660e01b8152600401600060405180830381865afa1580156105ac573d6000803e3d6000fd5b505050506040513d6000823e3d601f19601f820116820180604052508101906105d59190611229565b9050919050565b600047905090565b60006001836040516105f69190611001565b908152602001604051809103902060009054906101000a900473ffffffffffffffffffffffffffffffffffffffff1673ffffffffffffffffffffffffffffffffffffffff166370a08231836040518263ffffffff1660e01b815260040161065d9190610eee565b602060405180830381865afa15801561067a573d6000803e3d6000fd5b505050506040513d601f19601f8201168201806040525081019061069e919061102d565b905092915050565b6001818051602081018201805184825260208301602085012081835280955050505050506000915054906101000a900473ffffffffffffffffffffffffffffffffffffffff1681565b6001836040516106ff9190611001565b908152602001604051809103902060009054906101000a900473ffffffffffffffffffffffffffffffffffffffff1673ffffffffffffffffffffffffffffffffffffffff166323b872dd3330846040518463ffffffff1660e01b815260040161076a93929190611272565b6020604051808303816000875af1158015610789573d6000803e3d6000fd5b505050506040513d601f19601f820116820180604052508101906107ad919061118c565b6107b657600080fd5b6001826040516107c69190611001565b908152602001604051809103902060009054906101000a900473ffffffffffffffffffffffffffffffffffffffff1673ffffffffffffffffffffffffffffffffffffffff1663a9059cbb33836040518363ffffffff1660e01b815260040161082f92919061112b565b6020604051808303816000875af115801561084e573d6000803e3d6000fd5b505050506040513d601f19601f82011682018060405250810190610872919061118c565b61087b57600080fd5b505050565b60006001826040516108929190611001565b908152602001604051809103902060009054906101000a900473ffffffffffffffffffffffffffffffffffffffff169050919050565b600080670de0b6b3a7640000836108df91906110b8565b90506000600254826108f191906110e9565b905080471015610936576040517f08c379a000000000000000000000000000000000000000000000000000000000815260040161092d906112f5565b60405180910390fd5b3373ffffffffffffffffffffffffffffffffffffffff166108fc829081150290604051600060405180830381858888f1935050505015801561097c573d6000803e3d6000fd5b5060018560405161098d9190611001565b908152602001604051809103902060009054906101000a900473ffffffffffffffffffffffffffffffffffffffff1673ffffffffffffffffffffffffffffffffffffffff166323b872dd3330876040518463ffffffff1660e01b81526004016109f893929190611272565b6020604051808303816000875af1158015610a17573d6000803e3d6000fd5b505050506040513d601f19601f82011682018060405250810190610a3b919061118c565b610a4457600080fd5b809250505092915050565b6000604051905090565b600080fd5b600080fd5b6000819050919050565b610a7681610a63565b8114610a8157600080fd5b50565b600081359050610a9381610a6d565b92915050565b600060208284031215610aaf57610aae610a59565b5b6000610abd84828501610a84565b91505092915050565b600081519050919050565b600082825260208201905092915050565b60005b83811015610b00578082015181840152602081019050610ae5565b60008484015250505050565b6000601f19601f8301169050919050565b6000610b2882610ac6565b610b328185610ad1565b9350610b42818560208601610ae2565b610b4b81610b0c565b840191505092915050565b60006020820190508181036000830152610b708184610b1d565b905092915050565b600080fd5b600080fd5b7f4e487b7100000000000000000000000000000000000000000000000000000000600052604160045260246000fd5b610bba82610b0c565b810181811067ffffffffffffffff82111715610bd957610bd8610b82565b5b80604052505050565b6000610bec610a4f565b9050610bf88282610bb1565b919050565b600067ffffffffffffffff821115610c1857610c17610b82565b5b610c2182610b0c565b9050602081019050919050565b82818337600083830152505050565b6000610c50610c4b84610bfd565b610be2565b905082815260208101848484011115610c6c57610c6b610b7d565b5b610c77848285610c2e565b509392505050565b600082601f830112610c9457610c93610b78565b5b8135610ca4848260208601610c3d565b91505092915050565b600060208284031215610cc357610cc2610a59565b5b600082013567ffffffffffffffff811115610ce157610ce0610a5e565b5b610ced84828501610c7f565b91505092915050565b610cff81610a63565b82525050565b6000602082019050610d1a6000830184610cf6565b92915050565b600073ffffffffffffffffffffffffffffffffffffffff82169050919050565b6000610d4b82610d20565b9050919050565b610d5b81610d40565b8114610d6657600080fd5b50565b600081359050610d7881610d52565b92915050565b60008060408385031215610d9557610d94610a59565b5b600083013567ffffffffffffffff811115610db357610db2610a5e565b5b610dbf85828601610c7f565b9250506020610dd085828601610d69565b9150509250929050565b6000819050919050565b6000610dff610dfa610df584610d20565b610dda565b610d20565b9050919050565b6000610e1182610de4565b9050919050565b6000610e2382610e06565b9050919050565b610e3381610e18565b82525050565b6000602082019050610e4e6000830184610e2a565b92915050565b600080600060608486031215610e6d57610e6c610a59565b5b600084013567ffffffffffffffff811115610e8b57610e8a610a5e565b5b610e9786828701610c7f565b935050602084013567ffffffffffffffff811115610eb857610eb7610a5e565b5b610ec486828701610c7f565b9250506040610ed586828701610a84565b9150509250925092565b610ee881610d40565b82525050565b6000602082019050610f036000830184610edf565b92915050565b60008060408385031215610f2057610f1f610a59565b5b600083013567ffffffffffffffff811115610f3e57610f3d610a5e565b5b610f4a85828601610c7f565b9250506020610f5b85828601610a84565b9150509250929050565b7f4e487b7100000000000000000000000000000000000000000000000000000000600052602260045260246000fd5b60006002820490506001821680610fac57607f821691505b602082108103610fbf57610fbe610f65565b5b50919050565b600081905092915050565b6000610fdb82610ac6565b610fe58185610fc5565b9350610ff5818560208601610ae2565b80840191505092915050565b600061100d8284610fd0565b915081905092915050565b60008151905061102781610a6d565b92915050565b60006020828403121561104357611042610a59565b5b600061105184828501611018565b91505092915050565b7f4e487b7100000000000000000000000000000000000000000000000000000000600052601260045260246000fd5b7f4e487b7100000000000000000000000000000000000000000000000000000000600052601160045260246000fd5b60006110c382610a63565b91506110ce83610a63565b9250826110de576110dd61105a565b5b828204905092915050565b60006110f482610a63565b91506110ff83610a63565b925082820261110d81610a63565b9150828204841483151761112457611123611089565b5b5092915050565b60006040820190506111406000830185610edf565b61114d6020830184610cf6565b9392505050565b60008115159050919050565b61116981611154565b811461117457600080fd5b50565b60008151905061118681611160565b92915050565b6000602082840312156111a2576111a1610a59565b5b60006111b084828501611177565b91505092915050565b60006111cc6111c784610bfd565b610be2565b9050828152602081018484840111156111e8576111e7610b7d565b5b6111f3848285610ae2565b509392505050565b600082601f8301126112105761120f610b78565b5b81516112208482602086016111b9565b91505092915050565b60006020828403121561123f5761123e610a59565b5b600082015167ffffffffffffffff81111561125d5761125c610a5e565b5b611269848285016111fb565b91505092915050565b60006060820190506112876000830186610edf565b6112946020830185610edf565b6112a16040830184610cf6565b949350505050565b7f537761702069732072756e6e696e67206c6f77206f6e2062616c616e63652e00600082015250565b60006112df601f83610ad1565b91506112ea826112a9565b602082019050919050565b6000602082019050818103600083015261130e816112d2565b905091905056fea26469706673582212206a65e86bb881d574a7e355cc619ab8406b557465db6ec8d6bbf959746051c8d264736f6c6343000818003360806040523480156200001157600080fd5b5060405162001825380380620018258339818101604052810190620000379190620004d2565b818181600390816200004a9190620007a2565b5080600490816200005c9190620007a2565b5050506200007a33683635c9adc5dea000006200008260201b60201c565b5050620009c0565b600073ffffffffffffffffffffffffffffffffffffffff168273ffffffffffffffffffffffffffffffffffffffff1603620000f75760006040517fec442f05000000000000000000000000000000000000000000000000000000008152600401620000ee9190620008ce565b60405180910390fd5b6200010b600083836200010f60201b60201c565b5050565b600073ffffffffffffffffffffffffffffffffffffffff168373ffffffffffffffffffffffffffffffffffffffff1603620001655780600260008282546200015891906200091a565b925050819055506200023b565b60008060008573ffffffffffffffffffffffffffffffffffffffff1673ffffffffffffffffffffffffffffffffffffffff16815260200190815260200160002054905081811015620001f4578381836040517fe450d38c000000000000000000000000000000000000000000000000000000008152600401620001eb9392919062000966565b60405180910390fd5b8181036000808673ffffffffffffffffffffffffffffffffffffffff1673ffffffffffffffffffffffffffffffffffffffff16815260200190815260200160002081905550505b600073ffffffffffffffffffffffffffffffffffffffff168273ffffffffffffffffffffffffffffffffffffffff1603620002865780600260008282540392505081905550620002d3565b806000808473ffffffffffffffffffffffffffffffffffffffff1673ffffffffffffffffffffffffffffffffffffffff168152602001908152602001600020600082825401925050819055505b8173ffffffffffffffffffffffffffffffffffffffff168373ffffffffffffffffffffffffffffffffffffffff167fddf252ad1be2c89b69c2b068fc378daa952ba7f163c4a11628f55a4df523b3ef83604051620003329190620009a3565b60405180910390a3505050565b6000604051905090565b600080fd5b600080fd5b600080fd5b600080fd5b6000601f19601f8301169050919050565b7f4e487b7100000000000000000000000000000000000000000000000000000000600052604160045260246000fd5b620003a8826200035d565b810181811067ffffffffffffffff82111715620003ca57620003c96200036e565b5b80604052505050565b6000620003df6200033f565b9050620003ed82826200039d565b919050565b600067ffffffffffffffff82111562000410576200040f6200036e565b5b6200041b826200035d565b9050602081019050919050565b60005b83811015620004485780820151818401526020810190506200042b565b60008484015250505050565b60006200046b6200046584620003f2565b620003d3565b9050828152602081018484840111156200048a576200048962000358565b5b6200049784828562000428565b509392505050565b600082601f830112620004b757620004b662000353565b5b8151620004c984826020860162000454565b91505092915050565b60008060408385031215620004ec57620004eb62000349565b5b600083015167ffffffffffffffff8111156200050d576200050c6200034e565b5b6200051b858286016200049f565b925050602083015167ffffffffffffffff8111156200053f576200053e6200034e565b5b6200054d858286016200049f565b9150509250929050565b600081519050919050565b7f4e487b7100000000000000000000000000000000000000000000000000000000600052602260045260246000fd5b60006002820490506001821680620005aa57607f821691505b602082108103620005c057620005bf62000562565b5b50919050565b60008190508160005260206000209050919050565b60006020601f8301049050919050565b600082821b905092915050565b6000600883026200062a7fffffffffffffffffffffffffffffffffffffffffffffffffffffffffffffffff82620005eb565b620006368683620005eb565b95508019841693508086168417925050509392505050565b6000819050919050565b6000819050919050565b6000620006836200067d62000677846200064e565b62000658565b6200064e565b9050919050565b6000819050919050565b6200069f8362000662565b620006b7620006ae826200068a565b848454620005f8565b825550505050565b600090565b620006ce620006bf565b620006db81848462000694565b505050565b5b818110156200070357620006f7600082620006c4565b600181019050620006e1565b5050565b601f82111562000752576200071c81620005c6565b6200072784620005db565b8101602085101562000737578190505b6200074f6200074685620005db565b830182620006e0565b50505b505050565b600082821c905092915050565b6000620007776000198460080262000757565b1980831691505092915050565b600062000792838362000764565b9150826002028217905092915050565b620007ad8262000557565b67ffffffffffffffff811115620007c957620007c86200036e565b5b620007d5825462000591565b620007e282828562000707565b600060209050601f8311600181146200081a576000841562000805578287015190505b62000811858262000784565b86555062000881565b601f1984166200082a86620005c6565b60005b8281101562000854578489015182556001820191506020850194506020810190506200082d565b8683101562000874578489015162000870601f89168262000764565b8355505b6001600288020188555050505b505050505050565b600073ffffffffffffffffffffffffffffffffffffffff82169050919050565b6000620008b68262000889565b9050919050565b620008c881620008a9565b82525050565b6000602082019050620008e56000830184620008bd565b92915050565b7f4e487b7100000000000000000000000000000000000000000000000000000000600052601160045260246000fd5b600062000927826200064e565b915062000934836200064e565b92508282019050808211156200094f576200094e620008eb565b5b92915050565b62000960816200064e565b82525050565b60006060820190506200097d6000830186620008bd565b6200098c602083018562000955565b6200099b604083018462000955565b949350505050565b6000602082019050620009ba600083018462000955565b92915050565b610e5580620009d06000396000f3fe608060405234801561001057600080fd5b50600436106100935760003560e01c8063313ce56711610066578063313ce5671461013457806370a082311461015257806395d89b4114610182578063a9059cbb146101a0578063dd62ed3e146101d057610093565b806306fdde0314610098578063095ea7b3146100b657806318160ddd146100e657806323b872dd14610104575b600080fd5b6100a0610200565b6040516100ad9190610aa9565b60405180910390f35b6100d060048036038101906100cb9190610b64565b610292565b6040516100dd9190610bbf565b60405180910390f35b6100ee6102b5565b6040516100fb9190610be9565b60405180910390f35b61011e60048036038101906101199190610c04565b6102bf565b60405161012b9190610bbf565b60405180910390f35b61013c6102ee565b6040516101499190610c73565b60405180910390f35b61016c60048036038101906101679190610c8e565b6102f7565b6040516101799190610be9565b60405180910390f35b61018a61033f565b6040516101979190610aa9565b60405180910390f35b6101ba60048036038101906101b59190610b64565b6103d1565b6040516101c79190610bbf565b60405180910390f35b6101ea60048036038101906101e59190610cbb565b6103f4565b6040516101f79190610be9565b60405180910390f35b60606003805461020f90610d2a565b80601f016020809104026020016040519081016040528092919081815260200182805461023b90610d2a565b80156102885780601f1061025d57610100808354040283529160200191610288565b820191906000526020600020905b81548152906001019060200180831161026b57829003601f168201915b5050505050905090565b60008061029d61047b565b90506102aa818585610483565b600191505092915050565b6000600254905090565b6000806102ca61047b565b90506102d7858285610495565b6102e2858585610529565b60019150509392505050565b60006012905090565b60008060008373ffffffffffffffffffffffffffffffffffffffff1673ffffffffffffffffffffffffffffffffffffffff168152602001908152602001600020549050919050565b60606004805461034e90610d2a565b80601f016020809104026020016040519081016040528092919081815260200182805461037a90610d2a565b80156103c75780601f1061039c576101008083540402835291602001916103c7565b820191906000526020600020905b8154815290600101906020018083116103aa57829003601f168201915b5050505050905090565b6000806103dc61047b565b90506103e9818585610529565b600191505092915050565b6000600160008473ffffffffffffffffffffffffffffffffffffffff1673ffffffffffffffffffffffffffffffffffffffff16815260200190815260200160002060008373ffffffffffffffffffffffffffffffffffffffff1673ffffffffffffffffffffffffffffffffffffffff16815260200190815260200160002054905092915050565b600033905090565b610490838383600161061d565b505050565b60006104a184846103f4565b90507fffffffffffffffffffffffffffffffffffffffffffffffffffffffffffffffff81146105235781811015610513578281836040517ffb8f41b200000000000000000000000000000000000000000000000000000000815260040161050a93929190610d6a565b60405180910390fd5b6105228484848403600061061d565b5b50505050565b600073ffffffffffffffffffffffffffffffffffffffff168373ffffffffffffffffffffffffffffffffffffffff160361059b5760006040517f96c6fd1e0000000000000000000000000000000000000000000000000000000081526004016105929190610da1565b60405180910390fd5b600073ffffffffffffffffffffffffffffffffffffffff168273ffffffffffffffffffffffffffffffffffffffff160361060d5760006040517fec442f050000000000000000000000000000000000000000000000000000000081526004016106049190610da1565b60405180910390fd5b6106188383836107f4565b505050565b600073ffffffffffffffffffffffffffffffffffffffff168473ffffffffffffffffffffffffffffffffffffffff160361068f5760006040517fe602df050000000000000000000000000000000000000000000000000000000081526004016106869190610da1565b60405180910390fd5b600073ffffffffffffffffffffffffffffffffffffffff168373ffffffffffffffffffffffffffffffffffffffff16036107015760006040517f94280d620000000000000000000000000000000000000000000000000000000081526004016106f89190610da1565b60405180910390fd5b81600160008673ffffffffffffffffffffffffffffffffffffffff1673ffffffffffffffffffffffffffffffffffffffff16815260200190815260200160002060008573ffffffffffffffffffffffffffffffffffffffff1673ffffffffffffffffffffffffffffffffffffffff1681526020019081526020016000208190555080156107ee578273ffffffffffffffffffffffffffffffffffffffff168473ffffffffffffffffffffffffffffffffffffffff167f8c5be1e5ebec7d5bd14f71427d1e84f3dd0314c0f7b2291e5b200ac8c7c3b925846040516107e59190610be9565b60405180910390a35b50505050565b600073ffffffffffffffffffffffffffffffffffffffff168373ffffffffffffffffffffffffffffffffffffffff160361084657806002600082825461083a9190610deb565b92505081905550610919565b60008060008573ffffffffffffffffffffffffffffffffffffffff1673ffffffffffffffffffffffffffffffffffffffff168152602001908152602001600020549050818110156108d2578381836040517fe450d38c0000000000000000000000000000000000000000000000000000000081526004016108c993929190610d6a565b60405180910390fd5b8181036000808673ffffffffffffffffffffffffffffffffffffffff1673ffffffffffffffffffffffffffffffffffffffff16815260200190815260200160002081905550505b600073ffffffffffffffffffffffffffffffffffffffff168273ffffffffffffffffffffffffffffffffffffffff160361096257806002600082825403925050819055506109af565b806000808473ffffffffffffffffffffffffffffffffffffffff1673ffffffffffffffffffffffffffffffffffffffff168152602001908152602001600020600082825401925050819055505b8173ffffffffffffffffffffffffffffffffffffffff168373ffffffffffffffffffffffffffffffffffffffff167fddf252ad1be2c89b69c2b068fc378daa952ba7f163c4a11628f55a4df523b3ef83604051610a0c9190610be9565b60405180910390a3505050565b600081519050919050565b600082825260208201905092915050565b60005b83811015610a53578082015181840152602081019050610a38565b60008484015250505050565b6000601f19601f8301169050919050565b6000610a7b82610a19565b610a858185610a24565b9350610a95818560208601610a35565b610a9e81610a5f565b840191505092915050565b60006020820190508181036000830152610ac38184610a70565b905092915050565b600080fd5b600073ffffffffffffffffffffffffffffffffffffffff82169050919050565b6000610afb82610ad0565b9050919050565b610b0b81610af0565b8114610b1657600080fd5b50565b600081359050610b2881610b02565b92915050565b6000819050919050565b610b4181610b2e565b8114610b4c57600080fd5b50565b600081359050610b5e81610b38565b92915050565b60008060408385031215610b7b57610b7a610acb565b5b6000610b8985828601610b19565b9250506020610b9a85828601610b4f565b9150509250929050565b60008115159050919050565b610bb981610ba4565b82525050565b6000602082019050610bd46000830184610bb0565b92915050565b610be381610b2e565b82525050565b6000602082019050610bfe6000830184610bda565b92915050565b600080600060608486031215610c1d57610c1c610acb565b5b6000610c2b86828701610b19565b9350506020610c3c86828701610b19565b9250506040610c4d86828701610b4f565b9150509250925092565b600060ff82169050919050565b610c6d81610c57565b82525050565b6000602082019050610c886000830184610c64565b92915050565b600060208284031215610ca457610ca3610acb565b5b6000610cb284828501610b19565b91505092915050565b60008060408385031215610cd257610cd1610acb565b5b6000610ce085828601610b19565b9250506020610cf185828601610b19565b9150509250929050565b7f4e487b7100000000000000000000000000000000000000000000000000000000600052602260045260246000fd5b60006002820490506001821680610d4257607f821691505b602082108103610d5557610d54610cfb565b5b50919050565b610d6481610af0565b82525050565b6000606082019050610d7f6000830186610d5b565b610d8c6020830185610bda565b610d996040830184610bda565b949350505050565b6000602082019050610db66000830184610d5b565b92915050565b7f4e487b7100000000000000000000000000000000000000000000000000000000600052601160045260246000fd5b6000610df682610b2e565b9150610e0183610b2e565b9250828201905080821115610e1957610e18610dbc565b5b9291505056fea26469706673582212205d24d262cc9aa694648b2e5f1fffcb266dde7765aaf296a096c19d2a6097fe7564736f6c63430008180033",
  "linkReferences": {},
  "deployedLinkReferences": {}
}